{
  "abi": [
    {
      "anonymous": false,
      "inputs": [
        {
          "indexed": true,
          "internalType": "uint256",
          "name": "_reqId",
          "type": "uint256"
        },
        {
          "indexed": false,
          "internalType": "int256",
          "name": "_code",
          "type": "int256"
        },
        {
          "indexed": false,
          "internalType": "string",
          "name": "_msg",
          "type": "string"
        }
      ],
      "name": "CallExecuted",
      "type": "event"
    },
    {
      "anonymous": false,
      "inputs": [
        {
          "indexed": true,
          "internalType": "string",
          "name": "_from",
          "type": "string"
        },
        {
          "indexed": true,
          "internalType": "string",
          "name": "_to",
          "type": "string"
        },
        {
          "indexed": true,
          "internalType": "uint256",
          "name": "_sn",
          "type": "uint256"
        },
        {
          "indexed": false,
          "internalType": "uint256",
          "name": "_reqId",
          "type": "uint256"
        },
        {
          "indexed": false,
          "internalType": "bytes",
          "name": "_data",
          "type": "bytes"
        }
      ],
      "name": "CallMessage",
      "type": "event"
    },
    {
      "anonymous": false,
      "inputs": [
        {
          "indexed": true,
          "internalType": "address",
          "name": "_from",
          "type": "address"
        },
        {
          "indexed": true,
          "internalType": "string",
          "name": "_to",
          "type": "string"
        },
        {
          "indexed": true,
          "internalType": "uint256",
          "name": "_sn",
          "type": "uint256"
        }
      ],
      "name": "CallMessageSent",
      "type": "event"
    },
    {
      "anonymous": false,
      "inputs": [
        {
          "indexed": false,
          "internalType": "uint8",
          "name": "version",
          "type": "uint8"
        }
      ],
      "name": "Initialized",
      "type": "event"
    },
    {
      "anonymous": false,
      "inputs": [
        {
          "indexed": true,
          "internalType": "uint256",
          "name": "_sn",
          "type": "uint256"
        },
        {
          "indexed": false,
          "internalType": "int256",
          "name": "_code",
          "type": "int256"
        }
      ],
      "name": "ResponseMessage",
      "type": "event"
    },
    {
      "anonymous": false,
      "inputs": [
        {
          "indexed": true,
          "internalType": "uint256",
          "name": "_sn",
          "type": "uint256"
        }
      ],
      "name": "RollbackExecuted",
      "type": "event"
    },
    {
      "anonymous": false,
      "inputs": [
        {
          "indexed": true,
          "internalType": "uint256",
          "name": "_sn",
          "type": "uint256"
        }
      ],
      "name": "RollbackMessage",
      "type": "event"
    },
    {
      "inputs": [],
      "name": "admin",
      "outputs": [
        {
          "internalType": "address",
          "name": "",
          "type": "address"
        }
      ],
      "stateMutability": "view",
      "type": "function"
    },
    {
      "inputs": [
        {
          "internalType": "uint256",
          "name": "_reqId",
          "type": "uint256"
        },
        {
          "internalType": "bytes",
          "name": "_data",
          "type": "bytes"
        }
      ],
      "name": "executeCall",
      "outputs": [],
      "stateMutability": "nonpayable",
      "type": "function"
    },
    {
      "inputs": [
        {
          "internalType": "uint256",
          "name": "_sn",
          "type": "uint256"
        }
      ],
      "name": "executeRollback",
      "outputs": [],
      "stateMutability": "nonpayable",
      "type": "function"
    },
    {
      "inputs": [
        {
          "internalType": "string",
          "name": "nid",
          "type": "string"
        }
      ],
      "name": "getDefaultConnection",
      "outputs": [
        {
          "internalType": "address",
          "name": "",
          "type": "address"
        }
      ],
      "stateMutability": "view",
      "type": "function"
    },
    {
      "inputs": [
        {
          "internalType": "string",
          "name": "_net",
          "type": "string"
        },
        {
          "internalType": "bool",
          "name": "_rollback",
          "type": "bool"
        },
        {
          "internalType": "string[]",
          "name": "_sources",
          "type": "string[]"
        }
      ],
      "name": "getFee",
      "outputs": [
        {
          "internalType": "uint256",
          "name": "",
          "type": "uint256"
        }
      ],
      "stateMutability": "view",
      "type": "function"
    },
    {
      "inputs": [
        {
          "internalType": "string",
          "name": "_net",
          "type": "string"
        },
        {
          "internalType": "bool",
          "name": "_rollback",
          "type": "bool"
        }
      ],
      "name": "getFee",
      "outputs": [
        {
          "internalType": "uint256",
          "name": "",
          "type": "uint256"
        }
      ],
      "stateMutability": "view",
      "type": "function"
    },
    {
      "inputs": [],
      "name": "getNetworkAddress",
      "outputs": [
        {
          "internalType": "string",
          "name": "",
          "type": "string"
        }
      ],
      "stateMutability": "view",
      "type": "function"
    },
    {
      "inputs": [],
      "name": "getNetworkId",
      "outputs": [
        {
          "internalType": "string",
          "name": "",
          "type": "string"
        }
      ],
      "stateMutability": "view",
      "type": "function"
    },
    {
      "inputs": [],
      "name": "getProtocolFee",
      "outputs": [
        {
          "internalType": "uint256",
          "name": "",
          "type": "uint256"
        }
      ],
      "stateMutability": "view",
      "type": "function"
    },
    {
      "inputs": [],
      "name": "getProtocolFeeHandler",
      "outputs": [
        {
          "internalType": "address",
          "name": "",
          "type": "address"
        }
      ],
      "stateMutability": "view",
      "type": "function"
    },
    {
      "inputs": [
        {
          "internalType": "string",
          "name": "_src",
          "type": "string"
        },
        {
          "internalType": "string",
          "name": "_svc",
          "type": "string"
        },
        {
          "internalType": "uint256",
          "name": "_sn",
          "type": "uint256"
        },
        {
          "internalType": "uint256",
          "name": "_code",
          "type": "uint256"
        },
        {
          "internalType": "string",
          "name": "_msg",
          "type": "string"
        }
      ],
      "name": "handleBTPError",
      "outputs": [],
      "stateMutability": "nonpayable",
      "type": "function"
    },
    {
      "inputs": [
        {
          "internalType": "string",
          "name": "_from",
          "type": "string"
        },
        {
          "internalType": "string",
          "name": "_svc",
          "type": "string"
        },
        {
          "internalType": "uint256",
          "name": "_sn",
          "type": "uint256"
        },
        {
          "internalType": "bytes",
          "name": "_msg",
          "type": "bytes"
        }
      ],
      "name": "handleBTPMessage",
      "outputs": [],
      "stateMutability": "nonpayable",
      "type": "function"
    },
    {
      "inputs": [
        {
          "internalType": "uint256",
          "name": "_sn",
          "type": "uint256"
        }
      ],
      "name": "handleError",
      "outputs": [],
      "stateMutability": "nonpayable",
      "type": "function"
    },
    {
      "inputs": [
        {
          "internalType": "string",
          "name": "_from",
          "type": "string"
        },
        {
          "internalType": "bytes",
          "name": "_msg",
          "type": "bytes"
        }
      ],
      "name": "handleMessage",
      "outputs": [],
      "stateMutability": "nonpayable",
      "type": "function"
    },
    {
      "inputs": [
        {
          "internalType": "string",
          "name": "_nid",
          "type": "string"
        }
      ],
      "name": "initialize",
      "outputs": [],
      "stateMutability": "nonpayable",
      "type": "function"
    },
    {
      "inputs": [
        {
          "internalType": "string",
          "name": "_to",
          "type": "string"
        },
        {
          "internalType": "bytes",
          "name": "_data",
          "type": "bytes"
        },
        {
          "internalType": "bytes",
          "name": "_rollback",
          "type": "bytes"
        }
      ],
      "name": "sendCallMessage",
      "outputs": [
        {
          "internalType": "uint256",
          "name": "",
          "type": "uint256"
        }
      ],
      "stateMutability": "payable",
      "type": "function"
    },
    {
      "inputs": [
        {
          "internalType": "string",
          "name": "_to",
          "type": "string"
        },
        {
          "internalType": "bytes",
          "name": "_data",
          "type": "bytes"
        },
        {
          "internalType": "bytes",
          "name": "_rollback",
          "type": "bytes"
        },
        {
          "internalType": "string[]",
          "name": "sources",
          "type": "string[]"
        },
        {
          "internalType": "string[]",
          "name": "destinations",
          "type": "string[]"
        }
      ],
      "name": "sendCallMessage",
      "outputs": [
        {
          "internalType": "uint256",
          "name": "",
          "type": "uint256"
        }
      ],
      "stateMutability": "payable",
      "type": "function"
    },
    {
      "inputs": [
        {
          "internalType": "address",
          "name": "_address",
          "type": "address"
        }
      ],
      "name": "setAdmin",
      "outputs": [],
      "stateMutability": "nonpayable",
      "type": "function"
    },
    {
      "inputs": [
        {
          "internalType": "string",
          "name": "nid",
          "type": "string"
        },
        {
          "internalType": "address",
          "name": "connection",
          "type": "address"
        }
      ],
      "name": "setDefaultConnection",
      "outputs": [],
      "stateMutability": "nonpayable",
      "type": "function"
    },
    {
      "inputs": [
        {
          "internalType": "uint256",
          "name": "_value",
          "type": "uint256"
        }
      ],
      "name": "setProtocolFee",
      "outputs": [],
      "stateMutability": "nonpayable",
      "type": "function"
    },
    {
      "inputs": [
        {
          "internalType": "address",
          "name": "_addr",
          "type": "address"
        }
      ],
      "name": "setProtocolFeeHandler",
      "outputs": [],
      "stateMutability": "nonpayable",
      "type": "function"
    },
    {
      "inputs": [
        {
          "internalType": "address",
          "name": "toAddr",
          "type": "address"
        },
        {
          "internalType": "string",
          "name": "to",
          "type": "string"
        },
        {
          "internalType": "string",
          "name": "from",
          "type": "string"
        },
        {
          "internalType": "bytes",
          "name": "data",
          "type": "bytes"
        },
        {
          "internalType": "string[]",
          "name": "protocols",
          "type": "string[]"
        }
      ],
      "name": "tryHandleCallMessage",
      "outputs": [],
      "stateMutability": "nonpayable",
      "type": "function"
    },
    {
      "inputs": [
        {
          "internalType": "uint256",
          "name": "_sn",
          "type": "uint256"
        }
      ],
      "name": "verifySuccess",
      "outputs": [
        {
          "internalType": "bool",
          "name": "",
          "type": "bool"
        }
      ],
      "stateMutability": "view",
      "type": "function"
    }
  ],
  "bytecode": {
    "object": "0x608060405234801561001057600080fd5b506154c1806100206000396000f3fe6080604052600436106101405760003560e01c80637d4c4f4a116100b6578063bbc22efd1161006f578063bbc22efd1461036b578063bda8ce211461038b578063ec05386b146103ab578063edc6afff146103eb578063f62d1888146103fe578063f851a4401461041e57600080fd5b80637d4c4f4a146102c35780638ef378b8146102e35780639e553a4f146102f6578063a5a4103114610316578063b070f9e51461032b578063b70eeb8d1461034b57600080fd5b806339c5f3fc1161010857806339c5f3fc1461020c578063502bf8e01461022e57806364f037571461024e5780636bf459cb1461026e578063704b6c0214610283578063787dce3d146102a357600080fd5b806304df28a9146101455780630a823dea146101675780632a84e1b0146101875780632eb71414146101a7578063304a70b5146101de575b600080fd5b34801561015157600080fd5b50610165610160366004614584565b610433565b005b34801561017357600080fd5b50610165610182366004614689565b610590565b34801561019357600080fd5b506101656101a2366004614735565b6105f5565b3480156101b357600080fd5b50600e546001600160a01b03165b6040516001600160a01b0390911681526020015b60405180910390f35b3480156101ea57600080fd5b506101fe6101f936600461475e565b610961565b6040519081526020016101d5565b34801561021857600080fd5b506102216109fd565b6040516101d59190614821565b34801561023a57600080fd5b50610165610249366004614834565b610a8f565b34801561025a57600080fd5b5061016561026936600461484f565b610ae9565b34801561027a57600080fd5b50610221610b65565b34801561028f57600080fd5b5061016561029e366004614834565b610b74565b3480156102af57600080fd5b506101656102be366004614735565b610bce565b3480156102cf57600080fd5b506101fe6102de36600461489c565b610c0b565b6101fe6102f13660046148e0565b610c56565b34801561030257600080fd5b506101c161031136600461495d565b610cd6565b34801561032257600080fd5b506005546101fe565b34801561033757600080fd5b50610165610346366004614735565b610d07565b34801561035757600080fd5b50610165610366366004614991565b610d28565b34801561037757600080fd5b50610165610386366004614a34565b610d96565b34801561039757600080fd5b506101656103a6366004614a9f565b610ec8565b3480156103b757600080fd5b506103db6103c6366004614735565b60009081526008602052604090205460ff1690565b60405190151581526020016101d5565b6101fe6103f9366004614ae5565b6114bb565b34801561040a57600080fd5b5061016561041936600461495d565b611a07565b34801561042a57600080fd5b506101c1611b5a565b3330146104765760405162461bcd60e51b815260206004820152600c60248201526b13db9b1e525b9d195c9b985b60a21b60448201526064015b60405180910390fd5b6001600160a01b0385166104b85760408051808201909152600f81526e125b1b1959d85b105c99dd5b595b9d608a1b60208201526104b5908590611b69565b94505b8051600003610526576040516325ecfc2360e11b81526001600160a01b03861690634bd9f846906104ef9086908690600401614b86565b600060405180830381600087803b15801561050957600080fd5b505af115801561051d573d6000803e3d6000fd5b50505050610589565b604051635d6a16f560e01b81526001600160a01b03861690635d6a16f59061055690869086908690600401614bfd565b600060405180830381600087803b15801561057057600080fd5b505af1158015610584573d6000803e3d6000fd5b505050505b5050505050565b61059a8686611e4f565b60405163b070f9e560e01b815260048101859052309063b070f9e590602401600060405180830381600087803b1580156105d357600080fd5b505af11580156105e7573d6000803e3d6000fd5b505050505050505050505050565b6000818152600660209081526040808320815160a0810190925280546001600160a01b03168252600181018054929391929184019161063390614c36565b80601f016020809104026020016040519081016040528092919081815260200182805461065f90614c36565b80156106ac5780601f10610681576101008083540402835291602001916106ac565b820191906000526020600020905b81548152906001019060200180831161068f57829003601f168201915b5050505050815260200160028201805480602002602001604051908101604052809291908181526020016000905b828210156107865783829060005260206000200180546106f990614c36565b80601f016020809104026020016040519081016040528092919081815260200182805461072590614c36565b80156107725780601f1061074757610100808354040283529160200191610772565b820191906000526020600020905b81548152906001019060200180831161075557829003601f168201915b5050505050815260200190600101906106da565b50505050815260200160038201805461079e90614c36565b80601f01602080910402602001604051908101604052809291908181526020018280546107ca90614c36565b80156108175780601f106107ec57610100808354040283529160200191610817565b820191906000526020600020905b8154815290600101906020018083116107fa57829003601f168201915b50505091835250506004919091015460ff16151560209091015280519091506001600160a01b031661087e5760405162461bcd60e51b815260206004820152601060248201526f496e76616c696453657269616c4e756d60801b604482015260640161046d565b80608001516108c45760405162461bcd60e51b8152602060048201526012602482015271149bdb1b189858dad39bdd115b98589b195960721b604482015260640161046d565b6108cd82611ef2565b8051606082015160408084015190516304df28a960e01b815230936304df28a99361090093919260029290600401614c6a565b600060405180830381600087803b15801561091a57600080fd5b505af115801561092e573d6000803e3d6000fd5b50506040518492507f08f0ac7aef6da8bbe43bee8b1444a1883f1359566618bc379ce5abba448838379150600090a25050565b600554600090815b83518110156109f45760006109c76040518060400160405280600f81526020016e125b1b1959d85b105c99dd5b595b9d608a1b8152508684815181106109b1576109b1614d3b565b6020026020010151611b6990919063ffffffff16565b90506109d4818888611f47565b6109de9084614d67565b92505080806109ec90614d7a565b915050610969565b50949350505050565b606060018054610a0c90614c36565b80601f0160208091040260200160405190810160405280929190818152602001828054610a3890614c36565b8015610a855780601f10610a5a57610100808354040283529160200191610a85565b820191906000526020600020905b815481529060010190602001808311610a6857829003601f168201915b5050505050905090565b610a97611fc1565b6001600160a01b0316336001600160a01b031614610ac75760405162461bcd60e51b815260040161046d90614d93565b600e80546001600160a01b0319166001600160a01b0392909216919091179055565b610af1611fc1565b6001600160a01b0316336001600160a01b031614610b215760405162461bcd60e51b815260040161046d90614d93565b80600b83604051610b329190614db6565b90815260405190819003602001902080546001600160a01b03929092166001600160a01b03199092169190911790555050565b606060028054610a0c90614c36565b610b7c611fc1565b6001600160a01b0316336001600160a01b031614610bac5760405162461bcd60e51b815260040161046d90614d93565b600d80546001600160a01b0319166001600160a01b0392909216919091179055565b610bd6611fc1565b6001600160a01b0316336001600160a01b031614610c065760405162461bcd60e51b815260040161046d90614d93565b600555565b6000610c40600b84604051610c209190614db6565b908152604051908190036020019020546001600160a01b03168484611f47565b600554610c4d9190614d67565b90505b92915050565b60405163edc6afff60e01b81526000906060908190309063edc6afff90610c899089908990899087908190600401614dd2565b6020604051808303816000875af1158015610ca8573d6000803e3d6000fd5b505050506040513d601f19601f82011682018060405250810190610ccc9190614e3f565b9695505050505050565b6000600b82604051610ce89190614db6565b908152604051908190036020019020546001600160a01b031692915050565b610d2560405180604001604052808381526020016000815250611ff4565b50565b610d328585611e4f565b60405163bbc22efd60e01b8152309063bbc22efd90610d5b908a908a9087908790600401614e81565b600060405180830381600087803b158015610d7557600080fd5b505af1158015610d89573d6000803e3d6000fd5b5050505050505050505050565b6000610dd783838080601f0160208091040260200160405190810160405280939291908181526020018383808284376000920191909152506125e492505050565b805190915060001901610e2c57610e2785858080601f0160208091040260200160405190810160405280939291908181526020018383808284376000920191909152505050506020830151612690565b610589565b805160011901610e4b57610e27610e468260200151612a29565b611ff4565b6000610eac604051806040016040528060018152602001602960f81b815250610ea6610e7a8560000151612ab7565b60408051808201909152600f81526e0aadcd6dcdeeedc9ae6cea8f2e0ca5608b1b602082015290612c28565b90612c28565b90508060405162461bcd60e51b815260040161046d9190614821565b600082815260076020526040808220815160c08101909252805482908290610eef90614c36565b80601f0160208091040260200160405190810160405280929190818152602001828054610f1b90614c36565b8015610f685780601f10610f3d57610100808354040283529160200191610f68565b820191906000526020600020905b815481529060010190602001808311610f4b57829003601f168201915b50505050508152602001600182018054610f8190614c36565b80601f0160208091040260200160405190810160405280929190818152602001828054610fad90614c36565b8015610ffa5780601f10610fcf57610100808354040283529160200191610ffa565b820191906000526020600020905b815481529060010190602001808311610fdd57829003601f168201915b50505050508152602001600282015481526020016003820160009054906101000a900460ff161515151581526020016004820154815260200160058201805480602002602001604051908101604052809291908181526020016000905b8282101561110357838290600052602060002001805461107690614c36565b80601f01602080910402602001604051908101604052809291908181526020018280546110a290614c36565b80156110ef5780601f106110c4576101008083540402835291602001916110ef565b820191906000526020600020905b8154815290600101906020018083116110d257829003601f168201915b505050505081526020019060010190611057565b5050509152505080515190915061114f5760405162461bcd60e51b815260206004820152601060248201526f125b9d985b1a5914995c5d595cdd125960821b604482015260640161046d565b8151602083012060808201511461119b5760405162461bcd60e51b815260206004820152601060248201526f088c2e8c290c2e6d09ad2e6dac2e8c6d60831b604482015260640161046d565b6000838152600760205260408120906111b48282614315565b6111c2600183016000614315565b60006002830181905560038301805460ff19169055600483018190556111ec90600584019061434f565b505060006111fd8260000151612c54565b905061121c604051806040016040528060008152602001600081525090565b6040805160208082018352600080835290860151865160a088015194516304df28a960e01b8152939430946304df28a994611262949093909290918c9190600401614ea8565b600060405180830381600087803b15801561127c57600080fd5b505af192505050801561128d575060015b61135257611299614ef2565b806308c379a0036112d757506112ad614f0e565b806112b857506112d9565b604080518082018252908601518152600060208201529250905061136b565b505b3d808015611303576040519150601f19603f3d011682016040523d82523d6000602084013e611308565b606091505b50604051806040016040528086604001518152602001600081525092506040518060400160405280600c81526020016b3ab735b737bbb722b93937b960a11b81525091505061136b565b6040805180820182529085015181526001602082015291505b857fc7391e04887f8b3c16fa20877e028e8163139a478c8447e7d449eba1905caa518360200151836040516113a1929190614f97565b60405180910390a28360600151156114b3578360a0015151600003611425576000600b846040516113d29190614db6565b908152602001604051809103902060009054906101000a90046001600160a01b0316905061141f81600086600289604001516000196114119190614fb0565b61141a89612c6a565b612cba565b506114b3565b60005b8460a00151518110156114b15760006114786040518060400160405280600f81526020016e125b1b1959d85b105c99dd5b595b9d608a1b8152508760a0015184815181106109b1576109b1614d3b565b905061149e8160008760028a604001516000196114959190614fb0565b61141a8a612c6a565b50806114a981614d7a565b915050611428565b505b505050505050565b6000333b1515806114cb57508351155b61150d5760405162461bcd60e51b8152602060048201526013602482015272526f6c6c6261636b4e6f74506f737369626c6560681b604482015260640161046d565b610400845111156115605760405162461bcd60e51b815260206004820152601760248201527f4d6178526f6c6c6261636b53697a654578636565646564000000000000000000604482015260640161046d565b8351151560008061157089612d45565b9092509050600061161c61158333612d81565b6001805461159090614c36565b80601f01602080910402602001604051908101604052809291908181526020018280546115bc90614c36565b80156116095780601f106115de57610100808354040283529160200191611609565b820191906000526020600020905b8154815290600101906020018083116115ec57829003601f168201915b5050505050612d8c90919063ffffffff16565b90506000611628612dbc565b9050600085156116e8576040805160a08101825233815260208082018881528284018d9052606083018e90526000608084018190528681526006909252929020815181546001600160a01b0319166001600160a01b03909116178155915190919060018201906116989082615026565b50604082015180516116b491600284019160209091019061436d565b50606082015160038201906116c99082615026565b50608091909101516004909101805460ff191691151591909117905550805b60006040518060c0016040528085815260200186815260200184815260200188151581526020018d81526020018a8152509050600061172682612dd7565b9050610800815111156117715760405162461bcd60e51b815260206004820152601360248201527213585e11185d1854da5e99515e18d959591959606a1b604482015260640161046d565b8a51600003611874576000600b8860405161178c9190614db6565b908152604051908190036020019020546001600160a01b03169050806117ea5760405162461bcd60e51b81526020600482015260136024820152722737a232b330bab63a21b7b73732b1ba34b7b760691b604482015260640161046d565b604051633ea627a560e11b81526000906001600160a01b03831690637d4c4f4a9061181b908c908e906004016150e5565b602060405180830381865afa158015611838573d6000803e3d6000fd5b505050506040513d601f19601f8201168201806040525081019061185c9190614e3f565b905061186d82828b60018988612cba565b505061195a565b60005b8b518110156119585760006118bf6040518060400160405280600f81526020016e125b1b1959d85b105c99dd5b595b9d608a1b8152508e84815181106109b1576109b1614d3b565b90506000816001600160a01b0316637d4c4f4a8b8d6040518363ffffffff1660e01b81526004016118f19291906150e5565b602060405180830381865afa15801561190e573d6000803e3d6000fd5b505050506040513d601f19601f820116820180604052508101906119329190614e3f565b905061194382828c60018a89612cba565b5050808061195090614d7a565b915050611877565b505b600e546001600160a01b0316158015906119745750600047115b156119b457600e546040516001600160a01b03909116904780156108fc02916000818181858888f193505050501580156119b2573d6000803e3d6000fd5b505b838e6040516119c39190614db6565b6040519081900381209033907f69e53ea70fdf945f6d035b3979748bc999151691fb1dc69d66f8017f8840ae2890600090a450919c9b505050505050505050505050565b600054610100900460ff1615808015611a275750600054600160ff909116105b80611a415750303b158015611a41575060005460ff166001145b611aa45760405162461bcd60e51b815260206004820152602e60248201527f496e697469616c697a61626c653a20636f6e747261637420697320616c72656160448201526d191e481a5b9a5d1a585b1a5e995960921b606482015260840161046d565b6000805460ff191660011790558015611ac7576000805461ff0019166101001790555b600c8054336001600160a01b03199182168117909255600d805490911690911790556001611af58382615026565b50611b0261158330612d81565b600290611b0f9082615026565b508015611b56576000805461ff0019169055604051600181527f7f26b83ff96e1f2b6a682f133852f6798a09c465da95921460cefb38474024989060200160405180910390a15b5050565b6000611b64611fc1565b905090565b81516000908390602a148015611bad5750600360fc1b6001600160f81b03191681600081518110611b9c57611b9c614d3b565b01602001516001600160f81b031916145b8015611be75750600f60fb1b6001600160f81b03191681600181518110611bd657611bd6614d3b565b01602001516001600160f81b031916145b8390611c065760405162461bcd60e51b815260040161046d9190614821565b5060408051601480825281830190925260009160208201818036833701905050905060008080805b6028811015611da05785611c43826002614d67565b81518110611c5357611c53614d3b565b016020015160f81c935060016030851015611c6c575060005b8460ff166039108015611c82575060418560ff16105b15611c8b575060005b8460ff166046108015611ca1575060618560ff16105b15611caa575060005b8460ff1660661015611cba575060005b80611cd9578860405162461bcd60e51b815260040161046d9190614821565b60418560ff161015611cee5760309250611d08565b8460ff1660461015611d035760579250611d08565b603792505b611d1360028361511f565b600003611d2b57611d248386615133565b9350611d8d565b611d358386615133565b611d4085601061514c565b611d4a9190615168565b60f81b866002611d5b600186615181565b611d659190615194565b81518110611d7557611d75614d3b565b60200101906001600160f81b031916908160001a9053505b5080611d9881614d7a565b915050611c2e565b50600084604051602001611db49190614db6565b60408051601f198184030181529190526014810151975090506001600160a01b038716611e435760025b8651811015611e4157868181518110611df957611df9614d3b565b60209101015189906001600160f81b031916600360fc1b14611e2e5760405162461bcd60e51b815260040161046d9190614821565b5080611e3981614d7a565b915050611dde565b505b50505050505092915050565b611eb182828080601f0160208091040260200160405190810160405280939291908181526020018383808284376000920191909152505060408051808201909152600b81526a7863616c6c2d6d756c746960a81b602082015292915050612ef1565b611b565760405162461bcd60e51b8152602060048201526012602482015271496e76616c6964536572766963654e616d6560701b604482015260640161046d565b600081815260066020526040812080546001600160a01b031916815590611f1c6001830182614315565b611f2a60028301600061434f565b611f38600383016000614315565b50600401805460ff1916905550565b604051633ea627a560e11b81526000906001600160a01b03851690637d4c4f4a90611f7890869086906004016150e5565b602060405180830381865afa158015611f95573d6000803e3d6000fd5b505050506040513d601f19601f82011682018060405250810190611fb99190614e3f565b949350505050565b600d546000906001600160a01b0316611fe45750600c546001600160a01b031690565b50600d546001600160a01b031690565b80516000908152600660209081526040808320815160a0810190925280546001600160a01b03168252600181018054929391929184019161203490614c36565b80601f016020809104026020016040519081016040528092919081815260200182805461206090614c36565b80156120ad5780601f10612082576101008083540402835291602001916120ad565b820191906000526020600020905b81548152906001019060200180831161209057829003601f168201915b5050505050815260200160028201805480602002602001604051908101604052809291908181526020016000905b828210156121875783829060005260206000200180546120fa90614c36565b80601f016020809104026020016040519081016040528092919081815260200182805461212690614c36565b80156121735780601f1061214857610100808354040283529160200191612173565b820191906000526020600020905b81548152906001019060200180831161215657829003601f168201915b5050505050815260200190600101906120db565b50505050815260200160038201805461219f90614c36565b80601f01602080910402602001604051908101604052809291908181526020018280546121cb90614c36565b80156122185780601f106121ed57610100808354040283529160200191612218565b820191906000526020600020905b8154815290600101906020018083116121fb57829003601f168201915b50505091835250506004919091015460ff16151560209091015280519091506001600160a01b0316612248575050565b600181604001515111156123975781516000908152600a6020526040902060019061227233612d81565b60405161227f9190614db6565b908152604051908190036020019020805491151560ff1990921691909117905560005b81604001515181101561231a5782516000908152600a602052604090819020908301518051839081106122d7576122d7614d3b565b60200260200101516040516122ec9190614db6565b9081526040519081900360200190205460ff1661230857505050565b8061231281614d7a565b9150506122a2565b5060005b8160400151518110156123915782516000908152600a6020526040908190209083015180518390811061235357612353614d3b565b60200260200101516040516123689190614db6565b908152604051908190036020019020805460ff191690558061238981614d7a565b91505061231e565b50612468565b80604001515160010361241b576123e66040518060400160405280600f81526020016e125b1b1959d85b105c99dd5b595b9d608a1b81525082604001516000815181106109b1576109b1614d3b565b6001600160a01b0316336001600160a01b0316146124165760405162461bcd60e51b815260040161046d906151a8565b612468565b600b816020015160405161242f9190614db6565b90815260405190819003602001902054336001600160a01b03909116146124685760405162461bcd60e51b815260040161046d906151a8565b81516020808401516040519081527fbeacafd006c5e60667f6f04aec3a498f81c8e94142b4e95b5a5a763de43ca0ab910160405180910390a260018260200151036124d75781516124b890611ef2565b81516000908152600860205260409020805460ff191660011790555050565b60008160600151511161251d5760405162461bcd60e51b815260206004820152600e60248201526d4e6f526f6c6c6261636b4461746160901b604482015260640161046d565b60016080820181905282516000908152600660209081526040909120835181546001600160a01b0319166001600160a01b039091161781559083015183928201906125689082615026565b506040820151805161258491600284019160209091019061436d565b50606082015160038201906125999082615026565b50608091909101516004909101805460ff191691151591909117905581516040517f38934ab923f985814047679ba041577b8203ddd15fe9910d3fc6a7aa6001e9c790600090a25050565b6040805180820182526000808252606060208084019190915283518085018552828152810182905283518085019094528451845284810190840152909161262f90612f57565b612f57565b9050604051806040016040528061265f8360008151811061265257612652614d3b565b60200260200101516130a0565b81526020016126878360018151811061267a5761267a614d3b565b6020026020010151613143565b90529392505050565b600061269b82613213565b905060006126ac8260000151612c54565b90506126b88482612ef1565b6126c157600080fd5b6080820151805160209091012060a083015151600110156128185760008181526009602052604090206001906126f633612d81565b6040516127039190614db6565b908152604051908190036020019020805491151560ff1990921691909117905560005b8360a001515181101561279e57600082815260096020526040902060a085015180518390811061275857612758614d3b565b602002602001015160405161276d9190614db6565b9081526040519081900360200190205460ff1661278c57505050505050565b8061279681614d7a565b915050612726565b5060005b8360a001515181101561281257600082815260096020526040902060a08501518051839081106127d4576127d4614d3b565b60200260200101516040516127e99190614db6565b908152604051908190036020019020805460ff191690558061280a81614d7a565b9150506127a2565b506128e5565b8260a001515160010361289c576128676040518060400160405280600f81526020016e125b1b1959d85b105c99dd5b595b9d608a1b8152508460a001516000815181106109b1576109b1614d3b565b6001600160a01b0316336001600160a01b0316146128975760405162461bcd60e51b815260040161046d906151a8565b6128e5565b600b826040516128ac9190614db6565b90815260405190819003602001902054336001600160a01b03909116146128e55760405162461bcd60e51b815260040161046d906151a8565b60006128ef61334a565b6040805160c081018252865181526020808801518183015287830151828401526060808901511515908301526080820186905260a08089015190830152600084815260079091529190912081519293509091819061294d9082615026565b50602082015160018201906129629082615026565b5060408201516002820155606082015160038201805460ff19169115159190911790556080820151600482015560a082015180516129aa91600584019160209091019061436d565b50905050836040015184602001516040516129c59190614db6565b604051908190038120865190916129dc9190614db6565b60405180910390207f2cbc78425621c181f9f8a25fc06e44a0ac2b67cd6a31f8ed7918934187f8cc59848860800151604051612a19929190614f97565b60405180910390a4505050505050565b60408051808201825260008082526020808301829052835180850185528281528101829052835180850190945284518452848101908401529091612a6c90612f57565b90506040518060400160405280612a9c83600081518110612a8f57612a8f614d3b565b6020026020010151613365565b81526020016126878360018151811061265257612652614d3b565b606081600003612ade5750506040805180820190915260018152600360fc1b602082015290565b60408051602080825281830190925260009160208201818036833701905050905060005b8315612b6957612b13600a8561511f565b612b1e906030614d67565b60f81b828281518110612b3357612b33614d3b565b60200101906001600160f81b031916908160001a905350612b55600a85615194565b935080612b6181614d7a565b915050612b02565b600081612b75816151cf565b92506001600160401b03811115612b8e57612b8e614430565b6040519080825280601f01601f191660200182016040528015612bb8576020820181803683370190505b50905060005b81518110156109f45783612bd28285615181565b81518110612be257612be2614d3b565b602001015160f81c60f81b828281518110612bff57612bff614d3b565b60200101906001600160f81b031916908160001a90535080612c2081614d7a565b915050612bbe565b60608282604051602001612c3d9291906151e6565b604051602081830303815290604052905092915050565b6060610c50826000612c6585613417565b61352d565b60606000612c7b83600001516135fc565b612c88846020015161360f565b604051602001612c999291906151e6565b6040516020818303038152906040529050612cb38161361d565b9392505050565b856001600160a01b031663522a901e86866040518060400160405280600b81526020016a7863616c6c2d6d756c746960a81b81525086612d0d60405180604001604052808b815260200189815250613653565b6040518663ffffffff1660e01b8152600401612d2c9493929190615215565b6000604051808303818588803b158015610d7557600080fd5b6060806000612d5384613417565b9050612d618460008361352d565b612d7785612d70846001614d67565b875161352d565b9250925050915091565b6060610c5082613671565b606082604051806040016040528060018152602001602f60f81b81525083604051602001612c3d93929190615254565b60006003546001612dcd9190614d67565b6003819055919050565b606080606060005b8460a0015151811015612e6a57612e128560a001518281518110612e0557612e05614d3b565b6020026020010151613846565b604051602001612e229190614db6565b60405160208183030381529060405291508282604051602001612e469291906151e6565b60405160208183030381529060405292508080612e6290614d7a565b915050612ddf565b506000612e7a8560000151613846565b612e878660200151613846565b612e9487604001516135fc565b612ea388606001511515613851565b612eb089608001516138b8565b612eb98861361d565b604051602001612ece96959493929190615297565b6040516020818303038152906040529050612ee88161361d565b95945050505050565b600081604051602001612f049190614db6565b6040516020818303038152906040528051906020012083604051602001612f2b9190614db6565b6040516020818303038152906040528051906020012003612f4e57506001610c50565b50600092915050565b6060612f6282613910565b612f9f5760405162461bcd60e51b815260206004820152600e60248201526d135d5cdd0818994818481b1a5cdd60921b604482015260640161046d565b6000612faa8361394b565b90506000816001600160401b03811115612fc657612fc6614430565b60405190808252806020026020018201604052801561300b57816020015b6040805180820190915260008082526020820152815260200190600190039081612fe45790505b509050600061301d85602001516139d0565b856020015161302c9190614d67565b90506000805b848110156130955761304383613a51565b915060405180604001604052808381526020018481525084828151811061306c5761306c614d3b565b60209081029190910101526130818284614d67565b92508061308d81614d7a565b915050613032565b509195945050505050565b600081516021116130e85760405162461bcd60e51b815260206004820152601260248201527124b73b30b634b21034b73a10373ab6b132b960711b604482015260640161046d565b60006130f783602001516139d0565b9050600081846000015161310b9190615181565b90506000808386602001516131209190614d67565b90508051915060208310156109f45781836020036008021d915050949350505050565b80516060906131855760405162461bcd60e51b815260206004820152600e60248201526d092dcecc2d8d2c840d8cadccee8d60931b604482015260640161046d565b600061319483602001516139d0565b905060008184600001516131a89190615181565b90506000816001600160401b038111156131c4576131c4614430565b6040519080825280601f01601f1916602001820160405280156131ee576020820181803683370190505b50905060008160200190506109f484876020015161320c9190614d67565b8285613afa565b61324e6040518060c0016040528060608152602001606081526020016000815260200160001515815260200160608152602001606081525090565b600061328461262a8460408051808201825260008082526020918201528151808301909252825182529182019181019190915290565b90506040518060c001604052806132a78360008151811061267a5761267a614d3b565b81526020016132c28360018151811061267a5761267a614d3b565b81526020016132dd83600281518110612a8f57612a8f614d3b565b8152602001613305836003815181106132f8576132f8614d3b565b6020026020010151613b7d565b151581526020016133228360048151811061267a5761267a614d3b565b81526020016126878360058151811061333d5761333d614d3b565b6020026020010151613bed565b6000600454600161335b9190614d67565b6004819055919050565b80516000901580159061337a57508151602110155b6133bc5760405162461bcd60e51b815260206004820152601360248201527224b73b30b634b2103ab4b73a10373ab6b132b960691b604482015260640161046d565b60006133cb83602001516139d0565b905060008184600001516133df9190615181565b90506000808386602001516133f49190614d67565b90508051915060208310156109f457506020919091036101000a90049392505050565b600081815b81518110156134ea576040805180820190915260018152602f60f81b6020909101819052825183908390811061345457613454614d3b565b01602001516001600160f81b031916036134d8576006811180156134845750600182516134819190615181565b81105b60405180604001604052806015815260200174696e76616c69644e6574776f726b4164647265737360581b815250906134d05760405162461bcd60e51b815260040161046d9190614821565b509392505050565b806134e281614d7a565b91505061341c565b6040805180820182526015815274696e76616c69644e6574776f726b4164647265737360581b6020820152905162461bcd60e51b815261046d9190600401614821565b606083600061353c8585615181565b6001600160401b0381111561355357613553614430565b6040519080825280601f01601f19166020018201604052801561357d576020820181803683370190505b5090508460005b82518110156135f057838261359881614d7a565b9350815181106135aa576135aa614d3b565b602001015160f81c60f81b8382815181106135c7576135c7614d3b565b60200101906001600160f81b031916908160001a905350806135e881614d7a565b915050613584565b50909695505050505050565b6060610c5061360a83613c9e565b6138b8565b6060610c5061360a83613d5a565b606061362b825160c0613ddb565b8260405160200161363d9291906151e6565b6040516020818303038152906040529050919050565b60606000613664836000015161360f565b612c8884602001516138b8565b604080516028808252606082810190935283831b9160009160208201818036833701905050905060008060008060008060006136ac8b613f91565b905060005b6014811015613815576136c5816013615181565b6136d0906008615316565b6136db906002615411565b6136e99060608c901c615194565b97506136f660108961541d565b965061370387601061514c565b61370d9089615133565b95508161371b826002615316565b6028811061372b5761372b614d3b565b602002015194508161373e826002615316565b613749906001614d67565b6028811061375957613759614d3b565b6020020151935061376a8786614122565b92506137768388615168565b60f81b89613785836002615316565b8151811061379557613795614d3b565b60200101906001600160f81b031916908160001a9053506137b68685614122565b92506137c28387615168565b60f81b896137d1836002615316565b6137dc906001614d67565b815181106137ec576137ec614d3b565b60200101906001600160f81b031916908160001a9053508061380d81614d7a565b9150506136b1565b5087604051602001613827919061543f565b6040516020818303038152906040529950505050505050505050919050565b6060610c50826138b8565b6040805160018082528183019092526060916000919060208201818036833701905050905082613882576000613888565b600160f81b5b8160008151811061389b5761389b614d3b565b60200101906001600160f81b031916908160001a90535092915050565b606080825160011480156138e657506080836000815181106138dc576138dc614d3b565b016020015160f81c105b156138f2575081610c50565b6138fe83516080613ddb565b83604051602001612c3d9291906151e6565b8051600090810361392357506000919050565b6020820151805160001a9060c0821015613941575060009392505050565b5060019392505050565b8051600090810361395e57506000919050565b60008061396e84602001516139d0565b846020015161397d9190614d67565b90506000846000015185602001516139959190614d67565b90505b808210156139c7576139a982613a51565b6139b39083614d67565b9150826139bf81614d7a565b935050613998565b50909392505050565b8051600090811a60808110156139e95750600092915050565b60b8811080613a04575060c08110801590613a04575060f881105b15613a125750600192915050565b60c0811015613a3f57613a27600160b8615133565b613a349060ff1682615181565b612cb3906001614d67565b613a27600160f8615133565b50919050565b80516000908190811a6080811015613a6c5760019150613af3565b60b8811015613a9257613a80608082615181565b613a8b906001614d67565b9150613af3565b60c0811015613abf5760b78103600185019450806020036101000a85510460018201810193505050613af3565b60f8811015613ad357613a8060c082615181565b60f78103600185019450806020036101000a855104600182018101935050505b5092915050565b80600003613b0757505050565b60208110613b3f5782518252613b1e602084614d67565b9250613b2b602083614d67565b9150613b38602082615181565b9050613b07565b8015613b785760006001613b54836020615181565b613b6090610100615411565b613b6a9190615181565b845184518216911916178352505b505050565b8051600090600114613bc65760405162461bcd60e51b81526020600482015260126024820152714d7573742068617665206c656e677468203160701b604482015260640161046d565b6020820151805160001a90811580613bde5750608082145b15613941575060009392505050565b60606000613bfa83612f57565b9050600081516001600160401b03811115613c1757613c17614430565b604051908082528060200260200182016040528015613c4a57816020015b6060815260200190600190039081613c355790505b50905060005b82518110156134d057613c6e83828151811061267a5761267a614d3b565b828281518110613c8057613c80614d3b565b60200260200101819052508080613c9690614d7a565b915050613c50565b606081600003613cdb5760015b6040519080825280601f01601f191660200182016040528015613af3576020820181803683370190505092915050565b608060015b6020811015613d145781841015613cfb57611fb9848261414f565b60089190911b9080613d0c81614d7a565b915050613ce0565b5080831015613d41576040805160208101859052015b604051602081830303815290604052915050919050565b6040516000602082015260218101849052604101613d2a565b606081600003613d6b576001613cab565b608060801960015b6020811015613db6578285128015613d8a57508185135b15613d9957612ee8858261414f565b600892831b929190911b9080613dae81614d7a565b915050613d73565b5060408051602081018690520160405160208183030381529060405292505050919050565b6060806038841015613e455760408051600180825281830190925290602082018180368337019050509050613e108385614d67565b601f1a60f81b81600081518110613e2957613e29614d3b565b60200101906001600160f81b031916908160001a905350610c4d565b600060015b613e548187615194565b15613e7a5781613e6381614d7a565b9250613e73905061010082615316565b9050613e4a565b613e85826001614d67565b6001600160401b03811115613e9c57613e9c614430565b6040519080825280601f01601f191660200182016040528015613ec6576020820181803683370190505b509250613ed38583614d67565b613ede906037614d67565b601f1a60f81b83600081518110613ef757613ef7614d3b565b60200101906001600160f81b031916908160001a905350600190505b818111613f8857610100613f278284615181565b613f3390610100615411565b613f3d9088615194565b613f47919061511f565b601f1a60f81b838281518110613f5f57613f5f614d3b565b60200101906001600160f81b031916908160001a90535080613f8081614d7a565b915050613f13565b50509392505050565b613f996143c3565b606082901b6000613fa9826141bb565b604051602001613fb99190614db6565b60405160208183030381529060405280519060200120905060008060008060005b6014811015614116576010878260148110613ff757613ff7614d3b565b6140039291901a615469565b935060108488836014811061401a5761401a614d3b565b6140269291901a615133565b614030919061541d565b9450601086826020811061404657614046614d3b565b6140529291901a615469565b915060108287836020811061406957614069614d3b565b6140759291901a615133565b61407f919061541d565b925060098560ff16118015614097575060078360ff16115b886140a3836002615316565b602881106140b3576140b3614d3b565b91151560209092020152600960ff85161180156140d3575060078260ff16115b886140df836002615316565b6140ea906001614d67565b602881106140fa576140fa614d3b565b911515602090920201528061410e81614d7a565b915050613fda565b50505050505050919050565b6000600a8360ff16101561413857506030610c50565b811561414657506037610c50565b50605792915050565b60606000826001600160401b0381111561416b5761416b614430565b6040519080825280601f01601f191660200182016040528015614195576020820181803683370190505b50905060208101836020035b6020811015613f885785811a8253600191820191016141a1565b60408051602880825260608281019093526000919060208201818036833701905050905060008080805b601481101561430a576141f9816013615181565b614204906008615316565b61420f906002615411565b61421d90606089901c615194565b935061422a60108561541d565b925061423783601061514c565b6142419085615133565b9150600a8360ff1610614255576057614258565b60305b6142629084615168565b60f81b85614271836002615316565b8151811061428157614281614d3b565b60200101906001600160f81b031916908160001a905350600a8260ff16106142aa5760576142ad565b60305b6142b79083615168565b60f81b856142c6836002615316565b6142d1906001614d67565b815181106142e1576142e1614d3b565b60200101906001600160f81b031916908160001a9053508061430281614d7a565b9150506141e5565b509295945050505050565b50805461432190614c36565b6000825580601f10614331575050565b601f016020900490600052602060002090810190610d2591906143e2565b5080546000825590600052602060002090810190610d2591906143f7565b8280548282559060005260206000209081019282156143b3579160200282015b828111156143b357825182906143a39082615026565b509160200191906001019061438d565b506143bf9291506143f7565b5090565b6040518061050001604052806028906020820280368337509192915050565b5b808211156143bf57600081556001016143e3565b808211156143bf57600061440b8282614315565b506001016143f7565b80356001600160a01b038116811461442b57600080fd5b919050565b634e487b7160e01b600052604160045260246000fd5b601f8201601f191681016001600160401b038111828210171561446b5761446b614430565b6040525050565b600082601f83011261448357600080fd5b81356001600160401b0381111561449c5761449c614430565b6040516144b3601f8301601f191660200182614446565b8181528460208386010111156144c857600080fd5b816020850160208301376000918101602001919091529392505050565b600082601f8301126144f657600080fd5b813560206001600160401b038083111561451257614512614430565b8260051b60405161452584830182614446565b9384528581018301938381018886111561453e57600080fd5b84880192505b858310156145785782358481111561455c5760008081fd5b61456a8a87838c0101614472565b825250918401918401614544565b50979650505050505050565b600080600080600060a0868803121561459c57600080fd5b6145a586614414565b945060208601356001600160401b03808211156145c157600080fd5b6145cd89838a01614472565b955060408801359150808211156145e357600080fd5b6145ef89838a01614472565b9450606088013591508082111561460557600080fd5b61461189838a01614472565b9350608088013591508082111561462757600080fd5b50614634888289016144e5565b9150509295509295909350565b60008083601f84011261465357600080fd5b5081356001600160401b0381111561466a57600080fd5b60208301915083602082850101111561468257600080fd5b9250929050565b60008060008060008060008060a0898b0312156146a557600080fd5b88356001600160401b03808211156146bc57600080fd5b6146c88c838d01614641565b909a50985060208b01359150808211156146e157600080fd5b6146ed8c838d01614641565b909850965060408b0135955060608b0135945060808b013591508082111561471457600080fd5b506147218b828c01614641565b999c989b5096995094979396929594505050565b60006020828403121561474757600080fd5b5035919050565b8035801515811461442b57600080fd5b60008060006060848603121561477357600080fd5b83356001600160401b038082111561478a57600080fd5b61479687838801614472565b94506147a46020870161474e565b935060408601359150808211156147ba57600080fd5b506147c7868287016144e5565b9150509250925092565b60005b838110156147ec5781810151838201526020016147d4565b50506000910152565b6000815180845261480d8160208601602086016147d1565b601f01601f19169290920160200192915050565b602081526000610c4d60208301846147f5565b60006020828403121561484657600080fd5b610c4d82614414565b6000806040838503121561486257600080fd5b82356001600160401b0381111561487857600080fd5b61488485828601614472565b92505061489360208401614414565b90509250929050565b600080604083850312156148af57600080fd5b82356001600160401b038111156148c557600080fd5b6148d185828601614472565b9250506148936020840161474e565b6000806000606084860312156148f557600080fd5b83356001600160401b038082111561490c57600080fd5b61491887838801614472565b9450602086013591508082111561492e57600080fd5b61493a87838801614472565b9350604086013591508082111561495057600080fd5b506147c786828701614472565b60006020828403121561496f57600080fd5b81356001600160401b0381111561498557600080fd5b611fb984828501614472565b60008060008060008060006080888a0312156149ac57600080fd5b87356001600160401b03808211156149c357600080fd5b6149cf8b838c01614641565b909950975060208a01359150808211156149e857600080fd5b6149f48b838c01614641565b909750955060408a0135945060608a0135915080821115614a1457600080fd5b50614a218a828b01614641565b989b979a50959850939692959293505050565b60008060008060408587031215614a4a57600080fd5b84356001600160401b0380821115614a6157600080fd5b614a6d88838901614641565b90965094506020870135915080821115614a8657600080fd5b50614a9387828801614641565b95989497509550505050565b60008060408385031215614ab257600080fd5b8235915060208301356001600160401b03811115614acf57600080fd5b614adb85828601614472565b9150509250929050565b600080600080600060a08688031215614afd57600080fd5b85356001600160401b0380821115614b1457600080fd5b614b2089838a01614472565b96506020880135915080821115614b3657600080fd5b614b4289838a01614472565b95506040880135915080821115614b5857600080fd5b614b6489838a01614472565b94506060880135915080821115614b7a57600080fd5b61461189838a016144e5565b604081526000614b9960408301856147f5565b8281036020840152612ee881856147f5565b6000815180845260208085019450848260051b860182860160005b85811015614bf0578383038952614bde8383516147f5565b98850198925090840190600101614bc6565b5090979650505050505050565b606081526000614c1060608301866147f5565b8281036020840152614c2281866147f5565b90508281036040840152610ccc8185614bab565b600181811c90821680614c4a57607f821691505b602082108103613a4b57634e487b7160e01b600052602260045260246000fd5b60018060a01b03851681526000602060a081840152600060a084015260c0604084015260008654614c9a81614c36565b8060c087015260e0600180841660008114614cbc5760018114614cd657614d04565b60ff1985168984015283151560051b890183019550614d04565b8b6000528660002060005b85811015614cfc5781548b8201860152908301908801614ce1565b8a0184019650505b50505050508381036060850152614d1b81876147f5565b9150508281036080840152614d308185614bab565b979650505050505050565b634e487b7160e01b600052603260045260246000fd5b634e487b7160e01b600052601160045260246000fd5b80820180821115610c5057610c50614d51565b600060018201614d8c57614d8c614d51565b5060010190565b60208082526009908201526827b7363ca0b236b4b760b91b604082015260600190565b60008251614dc88184602087016147d1565b9190910192915050565b60a081526000614de560a08301886147f5565b8281036020840152614df781886147f5565b90508281036040840152614e0b81876147f5565b90508281036060840152614e1f8186614bab565b90508281036080840152614e338185614bab565b98975050505050505050565b600060208284031215614e5157600080fd5b5051919050565b81835281816020850137506000828201602090810191909152601f909101601f19169091010190565b604081526000614e95604083018688614e58565b8281036020840152614d30818587614e58565b6001600160a01b038616815260a060208201819052600090614ecc908301876147f5565b8281036040840152614ede81876147f5565b90508281036060840152614e1f81866147f5565b600060033d1115614f0b5760046000803e5060005160e01c5b90565b600060443d1015614f1c5790565b6040516003193d81016004833e81513d6001600160401b038160248401118184111715614f4b57505050505090565b8285019150815181811115614f635750505050505090565b843d8701016020828501011115614f7d5750505050505090565b614f8c60208286010187614446565b509095945050505050565b828152604060208201526000611fb960408301846147f5565b80820260008212600160ff1b84141615614fcc57614fcc614d51565b8181058314821517610c5057610c50614d51565b601f821115613b7857600081815260208120601f850160051c810160208610156150075750805b601f850160051c820191505b818110156114b357828155600101615013565b81516001600160401b0381111561503f5761503f614430565b6150538161504d8454614c36565b84614fe0565b602080601f83116001811461508857600084156150705750858301515b600019600386901b1c1916600185901b1785556114b3565b600085815260208120601f198616915b828110156150b757888601518255948401946001909101908401615098565b50858210156150d55787850151600019600388901b60f8161c191681555b5050505050600190811b01905550565b6040815260006150f860408301856147f5565b905082151560208301529392505050565b634e487b7160e01b600052601260045260246000fd5b60008261512e5761512e615109565b500690565b60ff8281168282160390811115610c5057610c50614d51565b60ff8181168382160290811690818114613af357613af3614d51565b60ff8181168382160190811115610c5057610c50614d51565b81810381811115610c5057610c50614d51565b6000826151a3576151a3615109565b500490565b6020808252600d908201526c139bdd105d5d1a1bdc9a5e9959609a1b604082015260600190565b6000816151de576151de614d51565b506000190190565b600083516151f88184602088016147d1565b83519083019061520c8183602088016147d1565b01949350505050565b60808152600061522860808301876147f5565b828103602084015261523a81876147f5565b90508460408401528281036060840152614d3081856147f5565b600084516152668184602089016147d1565b84519083019061527a8183602089016147d1565b845191019061528d8183602088016147d1565b0195945050505050565b6000875160206152aa8285838d016147d1565b8851918401916152bd8184848d016147d1565b88519201916152cf8184848c016147d1565b87519201916152e18184848b016147d1565b86519201916152f38184848a016147d1565b855192019161530581848489016147d1565b919091019998505050505050505050565b8082028115828204841417610c5057610c50614d51565b600181815b8085111561536857816000190482111561534e5761534e614d51565b8085161561535b57918102915b93841c9390800290615332565b509250929050565b60008261537f57506001610c50565b8161538c57506000610c50565b81600181146153a257600281146153ac576153c8565b6001915050610c50565b60ff8411156153bd576153bd614d51565b50506001821b610c50565b5060208310610133831016604e8410600b84101617156153eb575081810a610c50565b6153f5838361532d565b806000190482111561540957615409614d51565b029392505050565b6000610c4d8383615370565b600060ff83168061543057615430615109565b8060ff84160491505092915050565b61060f60f31b81526000825161545c8160028501602087016147d1565b9190910160020192915050565b600060ff83168061547c5761547c615109565b8060ff8416069150509291505056fea26469706673582212205c6658aa6427c3d8c1e5bcad21fedc4378ca9b8884cd65e29a7c1f2a5dbce80064736f6c63430008150033",
    "linkReferences": {}
  },
  "methodIdentifiers": {
    "admin()": "f851a440",
    "executeCall(uint256,bytes)": "bda8ce21",
    "executeRollback(uint256)": "2a84e1b0",
    "getDefaultConnection(string)": "9e553a4f",
    "getFee(string,bool)": "7d4c4f4a",
    "getFee(string,bool,string[])": "304a70b5",
    "getNetworkAddress()": "6bf459cb",
    "getNetworkId()": "39c5f3fc",
    "getProtocolFee()": "a5a41031",
    "getProtocolFeeHandler()": "2eb71414",
    "handleBTPError(string,string,uint256,uint256,string)": "0a823dea",
    "handleBTPMessage(string,string,uint256,bytes)": "b70eeb8d",
    "handleError(uint256)": "b070f9e5",
    "handleMessage(string,bytes)": "bbc22efd",
    "initialize(string)": "f62d1888",
    "sendCallMessage(string,bytes,bytes)": "8ef378b8",
    "sendCallMessage(string,bytes,bytes,string[],string[])": "edc6afff",
    "setAdmin(address)": "704b6c02",
    "setDefaultConnection(string,address)": "64f03757",
    "setProtocolFee(uint256)": "787dce3d",
    "setProtocolFeeHandler(address)": "502bf8e0",
    "tryHandleCallMessage(address,string,string,bytes,string[])": "04df28a9",
    "verifySuccess(uint256)": "ec05386b"
  },
  "id": 4
}